:100000000C9456000C9473000C9473000C947300C1
:100010000C9473000C9473000C9473000C94730094
:100020000C9473000C9473000C9473000C94730084
:100030000C9473000C9473000C9473000C94730074
:100040000C9473000C9473000C9473000C94730064
:100050000C9473000C9473000C9473000C94730054
:100060000C9473000C9473000C9473000C94730044
:100070000C9473000C9473000C9473000C94730034
:100080000C9473000C9473000C9473000C94730024
:100090000C9473000C9473000C9473000C94730014
:1000A0000C9473000C9473000C94730011241FBE05
:1000B000CFEFD5E0DEBFCDBF12E0A0E0B1E0E2ECD3
:1000C000FEE002C005900D92A231B107D9F712E00F
:1000D000A2E1B2E001C01D92A431B107E1F70E9494
:1000E00052010C945F070C940000DF93CF9300D073
:1000F00000D0CDB7DEB78C83198214C01A820CC031
:100100001B8204C000008B818F5F8B838B818932BF
:10011000C8F38A818F5F8A838A81823088F38981DC
:100120008F5F898399818C81981740F30F900F908E
:100130000F900F90CF91DF9108951F920F920FB6FD
:100140000F921124DF93CF93CDB7DEB7CF91DF911C
:100150000F900FBE0F901F901895DF93CF93CDB7E0
:10016000DEB780E390E020E330E0F90120812064F5
:10017000FC01208380E390E020E330E0F90120815E
:100180002062FC01208380E390E020E330E0F9016D
:1001900020812061FC0120838AE290E02AE230E0A5
:1001A000F90120812B7FFC0120838BE290E02BE280
:1001B00030E0F90120812460FC01208380E390E09D
:1001C00020E330E0F90120812E7FFC01208381E3D0
:1001D00090E021E330E0F90120812E7FFC012083B3
:1001E00089E690E029E630E0F90120812061FC01F8
:1001F000208389E690E029E630E0F9012081206241
:10020000FC0120838DE390E02DE330E0F9012081B3
:100210002460FC012083CF91DF910895DF93CF9379
:10022000CDB7DEB781E390E021E330E0F901208132
:100230002F7BFC01208381E390E021E330E0F90192
:1002400020812062FC01208381E390E021E330E003
:10025000F90120812F7EFC012083CF91DF91089549
:10026000DF93CF93CDB7DEB781E390E021E330E0B9
:10027000F90120812064FC01208381E390E021E3E7
:1002800030E0F90120812F7DFC01208381E390E0A3
:1002900021E330E0F90120812061FC012083CF912E
:1002A000DF910895DF93CF93CDB7DEB70E94AD0005
:1002B00083E590E023E530E0F90120812160FC0135
:1002C000208383E590E023E530E0F901208124607C
:1002D000FC01208378948091000190910101FC0140
:1002E000099501C0000089E290E0FC018081882F1F
:1002F00090E0847090700097A9F189E290E0FC0191
:100300008081882F90E084709070009759F189E285
:1003100090E0FC018081882F90E0847090700097BD
:1003200009F189E290E0FC018081882F90E08470DF
:1003300090700097B9F089E290E0FC018081882FED
:1003400090E084709070009769F089E290E0FC0181
:100350008081882F90E084709070009719F081E080
:1003600090E002C080E090E080931202809112023F
:10037000882381F080911302882361F40E940E018A
:100380008091020190910301FC01099581E0809325
:100390001302A9CF80911202882309F0A3CF0E94F3
:1003A00030018091040190910501FC0109951092A2
:1003B0001302889598CFDF93CF93CDB7DEB78BE24A
:1003C00090E02BE230E0F90120812F7EFC012083B8
:1003D00085E290E025E230E0F90120812F77FC01F1
:1003E00020838BE290E02BE230E0F90120812F7B2B
:1003F000FC012083CF91DF910895DF93CF9300D04C
:100400000F92CDB7DEB78B8319823FC08B81882FC7
:1004100090E02981222F30E047E050E0BA01621BD2
:10042000730B9B01022E02C0959587950A94E2F703
:1004300081708A838A81882351F085E290E025E2E9
:1004400030E0F90120812F77FC01208309C085E28B
:1004500090E025E230E0F90120812068FC01208352
:100460008BE290E02BE230E0F90120812064FC0176
:1004700020838BE290E02BE230E0F90120812F7B9A
:10048000FC01208389818F5F89838981883008F40A
:10049000BDCF0F900F900F90CF91DF910895DF9314
:1004A000CF9300D0CDB7DEB789836A838BE290E02B
:1004B0002BE230E0F90120812061FC012083898159
:1004C000880F0E94FD018A810E94FD018BE290E06D
:1004D0002BE230E0F90120812F7EFC0120830F9078
:1004E0000F90CF91DF910895DF93CF9300D000D08C
:1004F0000F92CDB7DEB788E290E028E230E0F90154
:1005000020812068FC01208385E290E025E230E034
:10051000F90120812068FC0120838BE290E02BE22E
:1005200030E0F90120812068FC0120830E94DB017A
:100530008BE290E02BE230E0F90120812F77FC0183
:10054000208384E063E20E944F0285E062E80E941B
:100550004F0287E06FE00E944F0284E368E10E944F
:100560004F0285E368E20E944F0286E366E10E9443
:100570004F0287E361E00E944F0283E063E20E9442
:100580004F0284E189838981882F90E0A0E0B0E068
:10059000BC01CD010E941F05DC01CB01BC01CD01D6
:1005A00020E030E040E052E40E947104DC01CB0125
:1005B000BC01CD0120E030E048EC52E40E9477031A
:1005C000DC01CB018A839B83AC83BD838AE3698191
:1005D0000E944F0286E063E00E944F0280E090E0BC
:1005E0000F900F900F900F900F90CF91DF91089583
:1005F000DF93CF93CDB7DEB788E290E028E230E01A
:10060000F90120812068FC012083CF91DF910895BA
:10061000DF93CF93CDB7DEB782E30E9475000E94CF
:10062000740288E290E028E230E0F90120812F771F
:10063000FC012083CF91DF910895DF93CF93CDB755
:10064000DEB70E94F802CF91DF910895DF93CF9338
:10065000CDB7DEB70E940803CF91DF910895DF93F5
:10066000CF93CDB7DEB70E940803CF91DF910895F5
:10067000DF93CF93CDB7DEB70E94F802CF91DF9121
:100680000895DF93CF93CDB7DEB78AE290E02AE2F8
:1006900030E0F90120812061FC01208384E290E0B8
:1006A00024E230E0F90120812068FC0120838AE205
:1006B00090E02AE230E0F90120812064FC012083EF
:1006C0008AE290E02AE230E0F90120812068FC0112
:1006D000208387E290E027E230E0F9012081206862
:1006E000FC0120830E94F802CF91DF910895A0E2DF
:1006F000B0E0EDE7F3E00C94280769837A838B83FD
:100700009C832D833E834F835887CE010196BE0183
:10071000675F7F4F0E94BF06CE010596BE016F5EE8
:100720007F4F0E94BF069985923078F08989823088
:10073000C0F0943019F4823041F4CBC0843019F405
:10074000923079F4C6C0923051F481E02A859A89BA
:10075000291709F480E08A87CE010996BCC082304F
:1007600051F481E02A859A89291709F480E08A8B5F
:10077000CE014196B0C06D847E848F849888ED88C8
:10078000FE880F89188DE0E2F0E080E090E0DC0167
:10079000AA24BB24650120E030E0A901B301617007
:1007A000707061157105D1F02E0D3F1D401F511F56
:1007B00015012601280E391E4A1E5B1E81E090E0BD
:1007C000A0E0B0E02E153F054007510718F080E08B
:1007D00090E0DC01820D931DA41DB51DAA0CBB1C6D
:1007E000CC1CDD1C17FF09C061E0262E312C412CEA
:1007F000512CA228B328C428D528319749F0EE0CF3
:10080000FF1C001F111F9694879477946794C6CF9E
:100810006B897C89EB85FC856E0F7F1F6E5F7F4F38
:100820007C8F6B8F61E0EA857A89E71709F460E0D5
:100830006A8F6B8D7C8D10C0FC01E170F070309779
:1008400029F056954795379527955068B695A79501
:10085000979587956F5F7F4FB7FDEECF0CC0880FE0
:10086000991FAA1FBB1F57FD8160220F331F441F12
:10087000551F615070408030E0E09E07E0E0AE0719
:10088000E0E4BE0760F36B8F7C8F6FE7E62EF12C00
:10089000012D112DE822F9220A231B2360E4E6161C
:1008A000F1040105110561F487FD0AC02115310528
:1008B0004105510529F0805C9F4FAF4FBF4F8078B5
:1008C0008D8F9E8FAF8FB8A383E0898FCE0149961D
:1008D00002C08AE091E00E94F105A096E2E10C944A
:1008E0004407A8E1B0E0E7E7F4E00C94300769833F
:1008F0007A838B839C832D833E834F8358878E011D
:10090000075F1F4FCE010196B8010E94BF0681E12B
:10091000E82EF12CEC0EFD1ECE010596B7010E94CB
:10092000BF069985923008F483C08989823008F423
:100930007BC02A853A8923272A87943011F0923088
:1009400021F4981709F06CC071C0843039F41D8609
:100950001E861F86188A1C861B866AC0823019F480
:1009600084E0898765C08B859C852B893C89821BA7
:10097000930B9C878B872D853E854F855889ED8805
:10098000FE880F89188D2E153F054007510738F452
:10099000220F331F441F551F01979C878B876FE1E0
:1009A00070E0A12CB12CC12CA0E4DA2E80E090E004
:1009B000DC012E153F054007510740F08A299B298D
:1009C000AC29BD292E193F09400B510BD694C79471
:1009D000B794A794220F331F441F551F61507040D6
:1009E00041F76FE7E62EF12C012D112DE822F922B7
:1009F0000A231B2360E4E616F1040105110561F4E6
:100A000087FD0AC0211531054105510529F0805C9B
:100A10009F4FAF4FBF4F80788D879E87AF87B88B32
:100A20008E01075F1F4F04C0870102C00AE011E07A
:100A3000C8010E94F1056896EAE00C944C07A8E012
:100A4000B0E0E5E2F5E00C9432077B018C011A82FC
:100A5000611571058105910519F482E089835FC0F4
:100A600083E089838EE1C82ED12CDC82CB82ED829B
:100A7000FE820F831887C801B7010E949705FC0109
:100A80003197F7FF3AC0AA27BB27AE1BBF0B21E067
:100A900030E040E050E00A2E04C0220F331F441F14
:100AA000551F0A94D2F721503040404050402E212B
:100AB0003F214023512361E070E080E090E0211568
:100AC00031054105510519F460E070E0CB0104C027
:100AD00016950795F794E794AA95D2F7E62AF72A90
:100AE000082B192BED82FE820F8318878EE190E090
:100AF0008E1B9F0B9C838B8312C0309781F00E2E30
:100B000004C0EE0CFF1C001F111F0A94D2F7ED82E7
:100B1000FE820F831887CE1ADF0ADC82CB82CE01D9
:100B200001960E94F1052896E8E00C944E07AF92DA
:100B3000BF92CF92DF92EF92FF920F931F937B01B0
:100B40008C0180E0E81680E0F80681E0080780E08C
:100B5000180758F4EFEFEE16F1040105110509F03E
:100B600090F480E090E0DC0117C0F0E0EF16F0E0D8
:100B7000FF06F0E00F07F1E01F0750F480E190E07E
:100B8000A0E0B0E009C088E090E0A0E0B0E004C0E0
:100B900088E190E0A0E0B0E020E230E040E050E00A
:100BA000281B390B4A0B5B0B5701680104C0D69414
:100BB000C794B794A7948A95D2F7D601C5018E5EE3
:100BC0009E4FFC018081281B310941095109C9014F
:100BD0001F910F91FF90EF90DF90CF90BF90AF905B
:100BE0000895EF92FF920F931F93CF93DF93FC0131
:100BF000248135814681578161818081823020F452
:100C00004061EFEFF0E0A3C0843009F49BC0823074
:100C100009F492C0211531054105510509F48FC031
:100C20000280F381E02D8FEFE238F8070CF05AC014
:100C3000C2E8DFEFCE1BDF0BCA31D1056CF57901BD
:100C40008A010C2E04C016950795F794E7940A9430
:100C5000D2F781E090E0A0E0B0E00C2E04C0880F55
:100C6000991FAA1FBB1F0A94D2F70197A109B109C6
:100C700082239323A423B52321E030E040E050E019
:100C80000097A105B10519F420E030E0A9012E2953
:100C90003F29402B512B03C020E030E0A901DA01AD
:100CA000C9018F779070A070B07080349105A10554
:100CB000B10539F427FF09C0205C3F4F4F4F5F4F0C
:100CC00004C0215C3F4F4F4F5F4FE1E0F0E0203028
:100CD00080E0380780E0480780E4580728F5E0E026
:100CE000F0E022C0E038F1056CF5E158FF4FDA0181
:100CF000C9018F779070A070B07080349105A10504
:100D0000B10539F427FF09C0205C3F4F4F4F5F4FBB
:100D100004C0215C3F4F4F4F5F4F57FF05C05695B2
:100D2000479537952795319687E05695479537959E
:100D300027958A95D1F70BC0E0E0F0E005C0E0E030
:100D4000F0E005C0EFEFF0E020E030E0A9018E2FE9
:100D5000879588278795942F9F776795662767954E
:100D6000E695E22EA92FA82BFE2FF62B622F732FCC
:100D70008A2F9F2FCDB7DEB7E6E00C945007DC0139
:100D8000FB012C9111963C91119712968C91129720
:100D9000482F4F7750E0982F991F9927991F139646
:100DA0006C911397862F880F892B90E0661F66271A
:100DB000661F6183009739F52115310541055105FD
:100DC00011F482E029C082E89FEF9383828367E079
:100DD000220F331F441F551F6A95D1F783E080838C
:100DE00009C0220F331F441F551F82819381019731
:100DF00093838283203080E0380780E0480780E4D6
:100E0000580778F320C08F3F910579F421153105FB
:100E10004105510519F484E08083089544FF03C01F
:100E200081E0808310C010820EC08F579040938362
:100E3000828383E0808387E0220F331F441F551F86
:100E40008A95D1F750642483358346835783089568
:100E50002F923F924F925F926F927F928F929F92CA
:100E6000AF92BF92CF92DF92EF92FF920F931F93B8
:100E7000CF93DF93CDB7DEB7CA1BDB0B0FB6F89469
:100E8000DEBF0FBECDBF09942A88398848885F84A9
:100E90006E847D848C849B84AA84B984C884DF801A
:100EA000EE80FD800C811B81AA81B981CE0FD11DFE
:100EB0000FB6F894DEBF0FBECDBFED010895F894D4
:020EC000FFCF62
:100EC20041032F0338031D03260300000000000026
:100ED20000000001020203030303040404040404E7
:100EE20004040505050505050505050505050505B2
:100EF2000505060606060606060606060606060692
:100F0200060606060606060606060606060606067F
:100F12000606070707070707070707070707070761
:100F2200070707070707070707070707070707074F
:100F3200070707070707070707070707070707073F
:100F4200070707070707070707070707070707072F
:100F52000707080808080808080808080808080811
:100F620008080808080808080808080808080808FF
:100F720008080808080808080808080808080808EF
:100F820008080808080808080808080808080808DF
:100F920008080808080808080808080808080808CF
:100FA20008080808080808080808080808080808BF
:100FB20008080808080808080808080808080808AF
:100FC200080808080808080808080808080808089F
:020FD20008080D
:00000001FF
