:100000000C9456000C9473000C9473000C947300C1
:100010000C9473000C9473000C9473000C94730094
:100020000C9473000C9473000C9473000C94730084
:100030000C9473000C9473000C9473000C94730074
:100040000C9473000C9473000C9473000C94730064
:100050000C9473000C9473000C9473000C94730054
:100060000C9473000C9473000C9473000C94730044
:100070000C9473000C9473000C9473000C94730034
:100080000C9473000C9473000C9473000C94730024
:100090000C9473000C9473000C9473000C94730014
:1000A0000C9473000C9473000C94730011241FBE05
:1000B000CFEFD5E0DEBFCDBF11E0A0E0B1E0EAEACE
:1000C000F9E002C005900D92AA30B107D9F711E00E
:1000D000AAE0B1E001C01D92AC30B107E1F70E9487
:1000E00052010C94D3040C940000DF93CF9300D002
:1000F00000D0CDB7DEB78C83198214C01A820CC031
:100100001B8204C000008B818F5F8B838B818932BF
:10011000C8F38A818F5F8A838A81823088F38981DC
:100120008F5F898399818C81981740F30F900F908E
:100130000F900F90CF91DF9108951F920F920FB6FD
:100140000F921124DF93CF93CDB7DEB7CF91DF911C
:100150000F900FBE0F901F901895DF93CF93CDB7E0
:10016000DEB780E390E020E330E0F90120812064F5
:10017000FC01208380E390E020E330E0F90120815E
:100180002062FC01208380E390E020E330E0F9016D
:1001900020812061FC0120838AE290E02AE230E0A5
:1001A000F90120812B7FFC0120838BE290E02BE280
:1001B00030E0F90120812460FC01208380E390E09D
:1001C00020E330E0F90120812E7FFC01208381E3D0
:1001D00090E021E330E0F90120812E7FFC012083B3
:1001E00089E690E029E630E0F90120812061FC01F8
:1001F000208389E690E029E630E0F9012081206241
:10020000FC0120838DE390E02DE330E0F9012081B3
:100210002460FC012083CF91DF910895DF93CF9379
:10022000CDB7DEB781E390E021E330E0F901208132
:100230002F7BFC01208381E390E021E330E0F90192
:1002400020812062FC01208381E390E021E330E003
:10025000F90120812F7EFC012083CF91DF91089549
:10026000DF93CF93CDB7DEB781E390E021E330E0B9
:10027000F90120812064FC01208381E390E021E3E7
:1002800030E0F90120812F7DFC01208381E390E0A3
:1002900021E330E0F90120812061FC012083CF912E
:1002A000DF910895DF93CF93CDB7DEB70E94AD0005
:1002B00083E590E023E530E0F90120812160FC0135
:1002C000208383E590E023E530E0F901208124607C
:1002D000FC01208378948091000190910101FC0140
:1002E000099501C0000089E290E0FC018081882F1F
:1002F00090E0847090700097A9F189E290E0FC0191
:100300008081882F90E084709070009759F189E285
:1003100090E0FC018081882F90E0847090700097BD
:1003200009F189E290E0FC018081882F90E08470DF
:1003300090700097B9F089E290E0FC018081882FED
:1003400090E084709070009769F089E290E0FC0181
:100350008081882F90E084709070009719F081E080
:1003600090E002C080E090E080930A0180910A0151
:10037000882381F080910B01882361F40E940E0193
:100380008091020190910301FC01099581E0809325
:100390000B01A9CF80910A01882309F0A3CF0E9405
:1003A00030018091040190910501FC0109951092A2
:1003B0000B01889598CFDF93CF93CDB7DEB78BE253
:1003C00090E02BE230E0F90120812F7EFC012083B8
:1003D00085E290E025E230E0F90120812F77FC01F1
:1003E00020838BE290E02BE230E0F90120812F7B2B
:1003F000FC012083CF91DF910895DF93CF9300D04C
:100400000F92CDB7DEB78B8319823FC08B81882FC7
:1004100090E02981222F30E047E050E0BA01621BD2
:10042000730B9B01022E02C0959587950A94E2F703
:1004300081708A838A81882351F085E290E025E2E9
:1004400030E0F90120812F77FC01208309C085E28B
:1004500090E025E230E0F90120812068FC01208352
:100460008BE290E02BE230E0F90120812064FC0176
:1004700020838BE290E02BE230E0F90120812F7B9A
:10048000FC01208389818F5F89838981883008F40A
:10049000BDCF0F900F900F90CF91DF910895DF9314
:1004A000CF9300D0CDB7DEB789836A838BE290E02B
:1004B0002BE230E0F90120812061FC012083898159
:1004C000880F0E94FD018A810E94FD018BE290E06D
:1004D0002BE230E0F90120812F7EFC0120830F9078
:1004E0000F90CF91DF910895DF93CF9300D000D08C
:1004F0000F92CDB7DEB788E290E028E230E0F90154
:1005000020812068FC01208385E290E025E230E034
:10051000F90120812068FC0120838BE290E02BE22E
:1005200030E0F90120812068FC0120830E94DB017A
:100530008BE290E02BE230E0F90120812F77FC0183
:10054000208384E063E20E944F0285E062E80E941B
:100550004F0287E06FE00E944F0284E368E10E944F
:100560004F0285E368E20E944F0286E366E10E9443
:100570004F0287E361E00E944F0283E063E20E9442
:100580004F028CE189838981882F90E0A0E0B0E060
:10059000BC01CD010E94E203DC01CB01BC01CD0115
:1005A00020E030E040E052E40E947A03DC01CB011D
:1005B000BC01CD0120E030E048EC52E40E94700420
:1005C000DC01CB018A839B83AC83BD838AE3698191
:1005D0000E944F0286E063E00E944F0280E090E0BC
:1005E0000F900F900F900F900F90CF91DF91089583
:1005F000DF93CF93CDB7DEB788E290E028E230E01A
:10060000F90120812068FC012083CF91DF910895BA
:10061000DF93CF93CDB7DEB784E60E94750084E602
:100620000E9475000E94740288E290E028E230E0A7
:10063000F90120812F77FC012083CF91DF9108956C
:10064000DF93CF93CDB7DEB70E94F802CF91DF9151
:100650000895DF93CF93CDB7DEB70E940803CF9103
:10066000DF910895DF93CF93CDB7DEB70E940803E3
:10067000CF91DF910895DF93CF93CDB7DEB70E947E
:10068000F802CF91DF910895DF93CF93CDB7DEB716
:100690008AE290E02AE230E0F90120812061FC0149
:1006A000208384E290E024E230E0F9012081206898
:1006B000FC0120838AE290E02AE230E0F901208107
:1006C0002064FC0120838AE290E02AE230E0F90114
:1006D00020812068FC01208387E290E027E230E05F
:1006E000F90120812068FC0120830E94F802CF914B
:1006F000DF9108950CD0BAC0B2D040F0A9D030F04C
:1007000021F45F3F19F09BC05111E4C09EC0BFD0DF
:1007100098F39923C9F35523B1F3951B550BBB27C8
:10072000AA2762177307840738F09F5F5F4F220F75
:10073000331F441FAA1FA9F333D00E2E3AF0E0E86E
:1007400030D091505040E695001CCAF729D0FE2FBA
:1007500027D0660F771F881FBB1F2617370748074C
:10076000AB07B0E809F0BB0B802DBF01FF27935802
:100770005F4F2AF09E3F510568F061C0ABC05F3FFC
:10078000ECF3983EDCF3869577956795B795F795EA
:100790009F5FC9F7880F911D9695879597F90895E2
:1007A000E1E0660F771F881FBB1F6217730784077E
:1007B000BA0720F0621B730B840BBA0BEE1F88F78D
:1007C000E0950895E89409C097FB3EF490958095D4
:1007D000709561957F4F8F4F9F4F9923A9F0F92F07
:1007E00096E9BB279395F695879577956795B79585
:1007F000F111F8CFFAF4BB0F11F460FF1BC06F5F6B
:100800007F4F8F4F9F4F16C0882311F096E911C07C
:10081000772321F09EE8872F762F05C0662371F09D
:1008200096E8862F70E060E02AF09A95660F771FB1
:10083000881FDAF7880F9695879597F9089597F9A5
:100840009F6780E870E060E008959FEF80EC089576
:1008500000240A941616170618060906089500249F
:100860000A9412161306140605060895092E039419
:10087000000C11F4882352F0BB0F40F4BF2B11F48D
:1008800060FF04C06F5F7F4F8F4F9F4F089557FDEC
:100890009058440F551F59F05F3F71F04795880FEE
:1008A00097FB991F61F09F3F79F087950895121685
:1008B00013061406551FF2CF4695F1DF08C0161631
:1008C00017061806991FF1CF8695710561050894E2
:1008D0000895E894BB2766277727CB0197F90895F9
:1008E0000BD0C4CFB5DF28F0BADF18F0952309F09C
:1008F000A6CFABCF1124EECFCADFA0F3959FD1F3E3
:10090000950F50E0551F629FF001729FBB27F00DBD
:10091000B11D639FAA27F00DB11DAA1F649F662712
:10092000B00DA11D661F829F2227B00DA11D621F61
:10093000739FB00DA11D621F839FA00D611D221F1B
:10094000749F3327A00D611D231F849F600D211DFF
:10095000822F762F6A2F11249F5750408AF0E1F0A2
:1009600088234AF0EE0FFF1FBB1F661F771F881FEB
:1009700091505040A9F79E3F510570F060CFAACF2B
:100980005F3FECF3983EDCF3869577956795B795D6
:10099000F795E7959F5FC1F7FE2B880F911D969500
:0A09A000879597F90895F894FFCFAA
:0A09AA00440332033B03200329033A
:00000001FF
